:020000040800F2
:10000000E004002005010008CF1A00084519000887
:10001000CD1A000899040008351D000800000000F2
:10002000000000000000000000000000D51A0008D9
:10003000E506000800000000D11A0008D71A0008E1
:100040001F0100081F0100081F0100081F01000810
:100050001F010008D31A00081F0100081F01000833
:100060001F0100081F0100081F0100081F010008F0
:100070001F0100081F0100081F0100081F010008E0
:100080001F0100081F0100081F0100081F010008D0
:100090001F0100081F0100081F0100081F010008C0
:1000A0001F0100081F0100081F0100081F010008B0
:1000B0001F0100081F0100081F0100081F010008A0
:1000C0001F0100081F0100081F0100081F01000890
:1000D0001F010008291D00081F0100081F0100085A
:1000E0001F0100081F0100081F010008DFF810D0E1
:1000F00000F052F900480047D9210008AFF3008012
:10010000E00400200648804706480047FEE7FEE777
:10011000FEE7FEE7FEE7FEE7FEE7FEE7FEE7FEE7B7
:10012000531B0008ED000008202A04DB203A21FAC6
:1001300002F00021704721FA02F3D040C2F1200200
:100140009140084319467047D2B201E000F8012BF4
:10015000491EFBD270470022F6E710B513460A4647
:1001600004461946FFF7F0FF204610BD2DE9FE4F6B
:1001700081EA030404F0004421F0004100944FF0B0
:10018000000B23F0004350EA01045ED052EA03045E
:100190005BD0C3F30A54C1F30A552C44A4F2F334E0
:1001A0000194A0FB0254C1F3130141F48011C3F385
:1001B000130343F4801301FB024400FB034E840A43
:1001C000970A44EA815447EA8357A4FB07680295DB
:1001D0008D0A05FB07854FEA932C04FB0C54270579
:1001E000029D4FEA065847EA1637B5EB08056EEB55
:1001F000070C870E920E47EA811742EA8312A7FB8B
:100200000201B6EB0B0164EB00042B0D43EA0C3347
:100210005E1844EB1C50DA465146E7FB0201C5F379
:1002200013044FEA0B3343EA14534FEA0432019CA0
:1002300043EA0603A4F10C040294009CCDE900B447
:1002400000F05BF803B0BDE8F08F00200146F9E74D
:100250000EB5C10F80EAE0700844CA07002140F2E1
:1002600033438DE80E000A460B4600F046F803B013
:1002700000BD70B5C1F30A5201F000450024C1F37E
:10028000130140F2FF3341F480119A4201DA002059
:1002900070BD40F233439A42A2F2334203DC524231
:1002A000FFF742FF00E090402C43F1D0404270BD88
:1002B00030B50B46014600202022012409E021FA36
:1002C00002F59D4205D303FA02F5491B04FA02F533
:1002D0002844151EA2F10102F1DC30BD10B5141E38
:1002E00073F1000408DA401C41F1000192185B41EF
:1002F0001A4301D120F0010010BD2DE9F04D9246C6
:100300009B4611B1B1FA81F202E0B0FA80F22032DC
:10031000904600F053F804460F4640EA0A0041EACE
:100320000B0153465A46084313D0114653EA0100C5
:1003300019D0C8F140025046FFF7F6FE05460E46BA
:1003400050465946424600F039F8084305D001208E
:1003500004E020463946BDE8F08D0020054346EA1A
:10036000E0762C4337430A986305E40AA0EB0800C3
:100370000022FD0A44EA47540A3002D50020014613
:10038000E9E7010510196941DDE9084500196941EE
:10039000BDE8F04DA2E70000064C074D06E0E0681E
:1003A00040F0010394E8070098471034AC42F6D3BC
:1003B000FFF7A0FEE422000804230008202A04DB43
:1003C000203A00FA02F1002070479140C2F1200368
:1003D00020FA03F3194390407047000070B50446BB
:1003E00000688168C943C9071CD1816821F00101F7
:1003F000816000F0F1FC05460FE000BF00F0ECFC6E
:10040000401B022809D9A06A40F01000A062E06AEF
:1004100040F00100E062012070BD20688068C043A8
:10042000C007EBD0002070BDF8B50026044600964A
:1004300000688168C943C90728D0816841F001017B
:100440008160134813490068B0FBF1F000E0401EE2
:1004500000900028FBD100F0BFFC054611E000BF72
:1004600000F0BAFC401B02280BD9A06A40F0100033
:10047000A062E06A40F00100E06284F8246001209C
:10048000F8BD20688068C043C007E9D10020F8BDEE
:100490001800002040420F00FEE700001FB50820B2
:1004A00000900120029000200190032003906946F3
:1004B000014800F097FB1FBD000801401FB5082050
:1004C000009001200190032003906946014800F04C
:1004D00089FB1FBD0008014070B516480024016863
:1004E00021F00F010160016841F008010160124D27
:1004F00004E0641CE4B2012001F04EFDD5F80001D7
:1005000010B1C82CF5D30DE0C82C0BD2002404E0A8
:10051000641CE4B2012001F03FFDD5F8000118B1E0
:10052000F02C04D3012070BDF02CF1D3FAE70020A9
:1005300070BD0000000801400000214270B500F0CD
:1005400093F800F071F8FFF7C7FFCC2000F09AF89D
:10055000BE2000F097F800F057F8044600F054F879
:10056000072805D9C043E143C0B2CCB2002500E062
:10057000012504EB002000B2FFF76AFE0022054BC4
:10058000FFF7F4FDFFF775FE00B2002D01D14042E8
:1005900000B270BD0000E43F10B500F045F8BDE8C2
:1005A0001040FFF799BF000070B5154C206820F08F
:1005B0000F002060206840F003002060114D0020F3
:1005C000C5F88001022005F5C07501F0E5FC0120A9
:1005D0002860206820F00F002060206840F00800AC
:1005E00020600C2001F0D8FC55F8800C08B10124E3
:1005F00000E00024322001F0CFFC204670BD000056
:10060000000801400000214270B500255FF00104A0
:10061000FFF7CAFFC001641C40EA5500E4B2C5B24E
:10062000082CF5D9284670BD0D4810B5016821F099
:100630000F010160016841F003010160094C0020D5
:10064000C4F8800140F2EE2004F5C07401F0A4FC6F
:1006500001202060BDE810400F2001F09DBC00008B
:10066000000801400000214210B5FFF7DDFFFFF751
:1006700033FFCC2000F006F8BDE81040442000F025
:1006800001B800002DE9F04106461448016821F048
:100690000F010160016841F0030101600125104C68
:1006A0000027A84616F0010F4FEA5606C4F88071DD
:1006B00006D0022001F070FCC4F880813C2005E0E7
:1006C0003C2001F069FCC4F88081022001F064FC48
:1006D0006D1CEDB2082DE5D9BDE8F08100080140A0
:1006E00000002142704772B6FEE70000F8B5002511
:1006F0000446009590F82400012808D0012084F8D1
:1007000024002046FFF76AFE060002D04BE00220DC
:10071000F8BDA06A20F4885040F00200A0620220D8
:1007200000F000FC22490968B1FBF0F0400000E055
:10073000401E00900028FBD12046FFF775FE206880
:10074000816841F00801816000F046FB074604E043
:1007500000F042FBC01B0A2811D8206880680007FF
:10076000F6D42068816841F00401816000F034FB18
:1007700007460EE000F030FBC01B0A2809D9A06A2A
:1007800020F0020040F01000A06284F82450012004
:10079000F8BD206880684007ECD4A06A20F0020011
:1007A00040F00100A06284F824503046F8BD0000FB
:1007B00018000020F8B50024009490F82420254665
:1007C000012A12D0012280F824204A681F23072A18
:1007D0000DD20668776B521E02EB820293409F4354
:1007E0000B6893401F43776319E00220F8BD066849
:1007F0000D2A0AD2376BD21F02EB820293409F432D
:100800000B6893401F43376309E0F76A0D3A02EB28
:10081000820293409F430B6893401F43F7620A682C
:10082000072306680A2A0AD3F7680A3A02EB42024B
:1008300093409F438B6893401F43F76008E03769FC
:1008400002EB420293409F438B6893401F43376102
:100850000A68102A01D0112A20D1124B02689A424C
:1008600017D193681B0219D4936843F40003936073
:100870000968102912D10C490C4A0968B1FBF2F140
:1008800001EB8101490000E0491E00910029FBD1E4
:1008900004E0816A41F020018162012480F8245043
:1008A0002046F8BD002401401800002040420F00FF
:1008B0000068C06C704700002DE9F0414FF0000760
:1008C00004003D467ED0A06A002628B9E66284F87E
:1008D0002460204600F07EF82046FFF77FFDA16AE5
:1008E000C90600D420B1A06A40F01000A06269E0FF
:1008F000A16A21F4885141F00201A1626268E169B4
:10090000237B0A4347EA43010A43A1684FF48077F7
:10091000B94209D0012907D05FF0000194F814C052
:10092000BCF1010F02D00AE03946F7E7F3B1A36A40
:1009300043F02003A362E36A43F00103E362236808
:10094000D3F804C02CF4694C4CEA010CC3F804C081
:1009500021688B68DFF870C003EA0C0313438B60D7
:10096000A168B9420BD0012909D00CE0DFF85CC0C6
:10097000A3690CEB43330B4343F40061DFE7218AA7
:100980000D05A5F580152168CB6A23F470032B4370
:10099000CB62216889680E4B1940914208D1E6620A
:1009A000A16A21F0020141F00101A162BDE8F081DC
:1009B000A06A20F0020040F01000A062E06A40F05F
:1009C0000100E0620120F1E7FDF7E1FF00E0FFFF39
:1009D000FE0E1FFF00B585B000210091019102912C
:1009E00003911C4B02681C4803219A4215D182696D
:1009F00042F400728261826902F400720492826998
:100A000042F004028261806900F004000490042036
:100A1000CDE900016946114817E0114B9A4216D101
:100A2000826942F480628261826902F48062049287
:100A3000826942F008028261806900F00800049037
:100A40000120CDE900016946064800F0CBF805B069
:100A500000BD0000002401400010024000080140D9
:100A600000280140000C014070B5044690F82400B5
:100A700001280DD0012084F824002046FFF7D4FC83
:100A800002004FF0000005D084F82400104670BD2D
:100A9000022070BDA16A40F20123994341F48071A4
:100AA000A1621F4D23681F49AB4218D10E6816F48E
:100AB000702F14D0A66A46F48016A6620E687605DA
:100AC00005D5A66A26F4005646F48056A662A66AA4
:100AD000F6040AD5E66A26F00606E66206E0A66A8D
:100AE00026F48016A6625E68E9E7E06284F82400D6
:100AF0006FF00200186020688368C3F34243072B3D
:100B000005D1A84208D1096811F4702F04D081687A
:100B100041F480118160B9E7816841F4A001F9E7EF
:100B2000002801400424014010B590F82110002451
:100B3000022903D00421816301243DE001680A6891
:100B400022F00E020A6001680A6822F001020A60BF
:100B50001A4A0168914201D1012121E0174A143259
:100B6000914201D110211BE0144A2832914201D157
:100B7000891515E0114A3C32914201D189140FE0E8
:100B80000E4A5032914202D14FF4803108E00B4AB4
:100B90006432914202D14FF4801101E04FF0807134
:100BA000064A083A5160012180F82110002180F89E
:100BB0002010416B01B18847204610BD080002405B
:100BC00070B5044600F008F90546601C02D00448E0
:100BD0000078044400F000F9401BA042FAD370BD35
:100BE0000C0000202DE9F84FDFF8B891002409F13E
:100BF000040A0AF1040B23460F270BF1040EC9E087
:100C00000125A5402A40AA427DD1674ED1F804C0F3
:100C1000ACEB0608B44532D014DCBCF1030F3AD07B
:100C200009DCBCF1000F2AD0BCF1010F1CD0BCF1D3
:100C3000020F31D11DE0BCF1110F17D0BCF1120F22
:100C40002AD119E0B8F5881F19D006DCB8F5803F25
:100C500015D0B8F5801F1FD111E0B8F5001F0ED0D8
:100C6000B8F5041F18D10AE0CB6815E0CB681B1D4E
:100C700012E0CB6808330FE0CB680C330CE08B68D4
:100C80002BB1012B4FF0080303D0456104E004238E
:100C900002E0056100E00023FF2A01D8064601E0DA
:100CA00000F104064FEA840501D9A5F12005D6F824
:100CB000008007FA05FC28EA0C0803FA05F548EA63
:100CC0000508C6F800804D68ED0062D5374DAE6965
:100CD00046F00106AE61AD6924F0030605F001059A
:100CE0000095334D06EB050CDCF80850A607360FCF
:100CF00007FA06F825EA0805DFF8B880404503D171
:100D00004FF0000817E044E0DFF8AC80404502D126
:100D10004FF001080FE0DFF8A480404502D14FF00A
:100D2000020808E0DFF89880404502D14FF0030840
:100D300001E04FF0040808FA06F848EA0508CCF884
:100D400008804D68D9F80060ED034D4601D5164383
:100D500000E096432E604D68DAF80060AD0355461A
:100D600001D5164300E096432E604D68DBF8006025
:100D7000ED025D4601D5164300E096432E604D68B6
:100D8000DEF80060AD02754601D5164300E09643DB
:100D90002E60641C0D682A46E5407FF431AFBDE843
:100DA000F88F000000040140000011100010024004
:100DB0000000014000080140000C0140001001400B
:100DC000001401408068084000D0012070470AB13B
:100DD000016170470904FBE7014880687047000023
:100DE0000C0000200248816802781144816070473D
:100DF0000C000020074810B5016841F010010160A7
:100E0000032000F07DF8002000F006F800F024F840
:100E1000002010BD0020024070B50D4D04464FF477
:100E20007A712878B1FBF0F00A490968B1FBF0F05B
:100E300000F0CEFB48B9102C07D200222146501EEC
:100E400000F03EF800206C6070BD012070BD000015
:100E50000C00002018000020104808B5816941F0FE
:100E600001018161816901F001010091C16941F0D5
:100E70008051C161C069002200F08050009011468D
:100E8000052000F01DF8052000F00CF8044841682A
:100E900021F0E06141F00071416008BD00100240A6
:100EA00000000140002809DB00F01F0201219140F1
:100EB0004009800000F1E020C0F8001170470000F8
:100EC000F0B40E4B1B680C46C3F30223C3F10705B5
:100ED000042D00D90425191D072901D2002300E0A3
:100EE000DB1E012606FA05F1491E214099409E406D
:100EF000761E16403143F0BC00F02EBF0CED00E032
:100F0000064900F0070208684FF6FF03184040EA60
:100F10000220034A10430860704700000CED00E017
:100F20000000FA0510B529A401461DCC86B08DE855
:100F30001D002AA02A4C006804900020012923D01B
:100F400002293AD010291DD161682268D20119D531
:100F5000C1F38342C9031DF8020009D5616804AAE0
:100F6000C1F34041515C1F4AB2FBF1F1484301E03B
:100F70001D4948436168490204D440005FF0030101
:100F8000B0FBF1F006B010BD226AC2F301210129C5
:100F900003D1920701D5C803F4E7022905D1626A9B
:100FA000920702D549F64040ECE70329EAD12168CF
:100FB0008903E7D54FF22440E4E700F033F9616894
:100FC000C1F38131491C4900DAE70000020304053E
:100FD000060708090A0B0C0D0E0F10100102000085
:100FE0000010024000127A0000093D002DE9F8438C
:100FF00005460078354CC00754D0E0690026C00093
:1010000008D4E06940F08050E061E069012600F01A
:10101000805000902E480168C90512D401688046AE
:1010200041F480710160FFF7D7FE074605E000BF7D
:10103000FFF7D2FEC01B642823D8D8F80000C005F3
:10104000F6D5206A10F4407021D0A98801F44071CF
:1010500081421CD0206A1F49012220F440700A609E
:1010600000220A602062C00711D0FFF7B5FE0746D4
:1010700041F2883808E000BFFFF7AEFEC11B4145D2
:1010800002D90320BDE8F883206A8007F4D5206ADE
:10109000696820F44070084320621EB1E06920F0C6
:1010A0008050E0612878800705D56068A96820F441
:1010B0004040084360602878C00605D56068E9684C
:1010C00020F48000084360600020DBE7001002404D
:1010D00000700040400442422DE9F0470F460500F1
:1010E00061D0434E306800F00700B84209D2306842
:1010F00020F0070038433060306800F00700B84245
:1011000051D128683B4C810712D5400703D5606850
:1011100040F4E06060602878000703D5606840F420
:10112000605060606068A96820F0F000084360606B
:101130002878C00728D06868012810D021680228C4
:1011400010D0890700292EDA616821F003010143DC
:101150006160FFF741FE804641F288390DE0216869
:101160008903EFE78901EDE7FFF736FEA0EB080101
:10117000494502D90320BDE8F0876068696800F03E
:101180000C00B0EB810FEFD1306800F00700B842DF
:101190000BD9306820F0070038433060306800F029
:1011A0000700B84201D00120E5E72878400705D5BF
:1011B0006068E96820F4E060084360602878000710
:1011C00006D56068296920F4605040EAC10060607B
:1011D00000F038F86168084AC1F30311515CC84057
:1011E0000649086006480068FFF716FE0020C2E7BF
:1011F0000020024000100240CC220008180000200D
:10120000100000200448054900684968044AC1F3F9
:101210000221515CC84070471800002000100240B5
:10122000DC2200080448054900684968044AC1F303
:10123000C221515CC84070471800002000100240D5
:10124000DC22000812A185B00FC98DE80F0014A0A0
:10125000144A006804905168134801F00C03042BF1
:1012600010D0082B0ED1C1F38343C9031DF803002E
:101270000AD5516804AAC1F34041515C0A4A50435F
:10128000B0FBF1F005B0704708494843FAE70000A9
:1012900002030405060708090A0B0C0D0E0F1010B7
:1012A000010200000010024000127A0000093D0017
:1012B0002DE9F84F040070D02078C04DC00749D008
:1012C0006868C0F38100012807D06868C0F3810016
:1012D000022809D16868C00306D52868800339D57B
:1012E00060680028E7D035E06068B0F5803F0BD03B
:1012F00010B1B0F5A02F11D0286820F480302860FC
:10130000286820F4802002E0286840F480302860BB
:10131000606890B1FFF760FD06460AE0286840F477
:1013200080202860F0E700BFFFF756FD801B64288F
:1013300073D828688003F7D50CE0FFF74DFD06460B
:1013400005E000BFFFF748FD801B6428F0D828683F
:101350008003F7D420789A4E80074FF001094FF0B0
:10136000000839D5686810F00C0F07D06868C0F322
:101370008100022809D16868C00306D42868800764
:1013800014D52069012808D110E02069B0B1C6F851
:101390000090FFF721FD074605E00AE1FFF71CFD7D
:1013A000C01B0228C4D828688007F7D5286861695F
:1013B00020F0F80040EAC10028600DE0C6F8008087
:1013C000FFF70AFD074604E0FFF706FDC01B0228F1
:1013D00023D828688007F7D4207800072CD57948CF
:1013E000A169D9B1C0F80090FFF7F6FC074604E008
:1013F000FFF7F2FCC01B02280FD8686A8007F7D5F8
:1014000071484FF4FA510068B0FBF1F0009000BF52
:101410000098411E0091FAD20EE080E0C0F80080F2
:10142000FFF7DAFC074604E0FFF7D6FCC01B0228F2
:1014300075D8686A8007F7D42078400760D5E869D6
:101440000027C00008D4E86940F08050E861E869EE
:10145000012700F0805000905C480168C90513D452
:101460000168834641F480710160FFF7B5FC824654
:1014700006E000BFFFF7B0FCA0EB0A0064284ED8DE
:10148000DBF80000C005F5D5E06801280AD008B1F6
:10149000052813D0286A20F001002862286A20F06D
:1014A000040002E0286A40F001002862E06841F28E
:1014B000883B98B1FFF790FC82460BE0286A40F029
:1014C00004002862EEE700BFFFF786FCA0EB0A01EC
:1014D00059455AD8286A8007F6D50CE0FFF77CFCFE
:1014E000824605E0FFF778FCA0EB0A0159454CD88D
:1014F000286A8007F6D41FB1E86920F08050E861BF
:10150000E06988B36968C1F38101022944D00228E7
:10151000C6F8608004D0FFF75FFC044638E034E092
:10152000FFF75AFC074604E0FFF756FCC01B0228F1
:101530002BD828688001F7D4206AB0F5803F05D108
:101540006868A16820F4003008436860D4E90801A5
:101550000843696821F4741108436860C6F8609014
:10156000FFF73AFC044606E025E000BFFFF734FC35
:10157000001B022809D828688001F7D51BE000BFAE
:10158000FFF72AFC001B022802D90320BDE8F88FD0
:1015900028688001F4D40EE00128F7D06868226A38
:1015A00000F48031914204D1616A00F470108842E5
:1015B00001D00120EAE70020E8E700000010024027
:1015C00000004242800442421800002000700040A7
:1015D00010B5401EB0F1807F01D3012010BD4FF047
:1015E000E02460610F21601700F0B6FB0020A061CD
:1015F00007202061002010BD7047000070B5026810
:1016000004461068D168536910F00F0F52D003F0F0
:10161000010501F490762E435FD0C20705D0CA05BC
:1016200003D5E26B42F00102E263420705D5DA0717
:1016300003D0E26B42F00202E263820705D5DA07CB
:1016400003D0E26B42F00402E263020707D501F027
:1016500020022A4303D0E26B42F00802E263E26B0D
:10166000002A33D0800604D5880602D5204600F033
:1016700087FA20684069E16BC0F38010090700D445
:1016800028B3204600F06EFA2068416949061AD551
:10169000416921F040014161606BA0B12D49416376
:1016A000606BFFF741FA002810D0606B416BBDE81A
:1016B00070400847830610D58B060ED52046BDE83E
:1016C000704000F05DBA2046FFF796FF70BD2046DF
:1016D000FFF792FF0020E06370BD03062BD50B06D9
:1016E00029D594F839002128F6D1A068B0F5805F9B
:1016F00001D12069B0B1206A411C216221680078C3
:101700004860E08C401E0004000CE084E4D12068B6
:10171000C16821F08001C1602068C16841F04001CA
:10172000C16070BD206A0088C0F308005060206A64
:10173000801C2062E5E74006F3D54806F1D5D16864
:10174000204621F04001D160202184F8391000F0BA
:10175000F8F870BD551B000870B5040004D094F86B
:101760003900002510B106E0012070BD84F8385022
:10177000204600F023F8242084F839002068C1684E
:1017800021F40051C160204600F040FA2068016950
:1017900021F4904101612068416921F02A014161F1
:1017A0002068C16841F40051C160E563202084F8DD
:1017B000390084F83A00002070BD000030B585B0D3
:1017C000002400940194029403940068184988420C
:1017D0002CD11848816941F480418161816901F40B
:1017E00080410491816941F0040181618069124D59
:1017F00000F0040004904FF400700090022001906B
:101800000320039069462846FFF7ECF92815CDE937
:101810000004694628460294FFF7E4F900220121FA
:101820002520FFF74DFB2520FFF73CFB05B030BD21
:1018300000380140001002400008014090F83A30A2
:10184000202B22D1F9B1F2B190F83830012B1CD005
:1018500081628285C2850021C163222280F83A20FC
:1018600080F838100168CA6842F48072CA60016862
:101870004A6942F001024A610068C16841F02001F2
:10188000C1600020704701207047022070477047F8
:101890002DE9F843044690F839001F4616460D46D8
:1018A00020284CD1C5B1BEB194F83800012846D0EB
:1018B000012084F838004FF00008C4F83C80212053
:1018C00084F83900FFF788FAA6848146E684A06888
:1018D000B0F5805F03D004E00120BDE8F883206903
:1018E00028B12E465FF0000584F838800EE000260F
:1018F000FAE78021204600F0E5F9A0B9AEB116F86C
:10190000010B21684860E08C401EE084E08C4B466F
:101910004FF0000200970028EBD14FF04001204625
:1019200000F0D0F930B10320D7E735F8020BC0F34F
:101930000800E6E7202084F839000020CDE70220E7
:10194000CBE77047FEE700003EB50021114800914B
:1019500001910F4A029102608160017301750124B7
:101960004FF460220461C2614160FEF7A5FF08B137
:10197000FEF7B9FE0220CDE900046946054802944D
:10198000FEF718FF002801D0FEF7ADFE3EBD0000B7
:1019900000240140240000203EB50024114800949A
:1019A000019402940E49846001600473047501255A
:1019B00005614FF460214460C161FEF77DFF08B10D
:1019C000FEF791FE0820CDE900056946029405481E
:1019D000FEF7F0FE002801D0FEF785FE3EBD0000B8
:1019E00000280140540000202DE9F04385B0002478
:1019F00025480094019402940394816941F02001E8
:101A00008161816901F020010491816941F0040143
:101A10008161816901F004010491816941F008014B
:101A200081618069DFF8648000F008000490002282
:101A300029214046FFF7CBF9DFF854904FF2F60723
:101A4000002239464846FFF7C2F921200125022627
:101A5000CDE90005CDE9024669464046FFF7C2F8E8
:101A600008208DE861000320039069464046FFF797
:101A7000B9F800970396CDE9015469464846FFF747
:101A8000B1F805B0BDE8F083001002400008014045
:101A9000000C01400C4810B50A4901604FF4E131D7
:101AA0004160002181600C22C160C0E904128161A3
:101AB000C161FFF751FE002803D0BDE81040FEF7DA
:101AC00012BE10BD0038014084000020FEE7FEE792
:101AD000704770477047FFF785B930B593B028213C
:101AE0006846FEF738FB14210AA8FEF734FB0025F0
:101AF00001200F9510951195010412958DE8230092
:101B000004904FF4E010CDE90810022407946846D1
:101B1000FFF7CEFB08B172B6FEE70AA90F2081E8F5
:101B200031004FF48060CDE90D0502210AA8FFF7CE
:101B3000D3FA08B172B6FEE74FF4004011900F944B
:101B40000FA8FFF753FA002801D072B6FEE713B0D2
:101B500030BD704710B5406A0021C185C184FFF7D0
:101B60004BFD10BD0168CA6822F49072CA6001681A
:101B70004A6922F001024A61202180F83A10704738
:101B800010B590F83A10222901D0022010BD8268C9
:101B90004FF480539A4201D1016921B1816A9A427E
:101BA0001BD04AB10AE00268816A5268C2F3080297
:101BB0000A80816A891C08E0026972B10268526871
:101BC00002F07F020A70816A491C8162C18D491E40
:101BD0000904090CC18503D016E002685268F1E7D8
:101BE0000168CA6822F02002CA600168CA6822F44B
:101BF0008072CA6001684A6922F001024A612021AC
:101C000080F83A10FFF743FE002010BD70B504467F
:101C100000680169E26821F44051114301612169C2
:101C2000A0680843616908432168CA6841F20C63EF
:101C30009A430243CA6020684169A26921F4407155
:101C4000114341611E492068884202D1FFF7EAFA38
:101C500001E0FFF7D7FA00EBC00101EB001260686A
:101C600064218000B2FBF0F3B3FBF1F36FF01806D0
:101C70007343B2FBF0F5B2FBF0F605EB83053223BC
:101C800003EB0515B5FBF1F5B6FBF1F605F0F00534
:101C900005EB0615B2FBF0F6B2FBF0F0B0FBF1F08D
:101CA0006FF01802504306EB800003EB0010B0FB0E
:101CB000F1F0216800F00F002844886070BD00003A
:101CC000003801402DE9F041984617460E4604467B
:101CD000069D1DE0681C1BD02DB1FFF77DF8A0EB21
:101CE0000800A84214D92068C16821F4D071C160ED
:101CF0002068416921F001014161202084F8390008
:101D000084F83A00002084F838000320BDE8F08110
:101D10002068006836EA000004D00020B842D9D01C
:101D20000020F3E70120F9E70148FFF767BC000056
:101D300084000020FEE700000FB4054B10B503A996
:101D4000044A029800F028F810BC5DF814FB00006B
:101D5000C1210008200000200907090E002804DB2B
:101D600000F1E02080F80014704700F00F0000F14F
:101D7000E02080F8141D704702E008C8121F08C157
:101D8000002AFAD170477047002001E001C1121FFC
:101D9000002AFBD1704700002DE9FF4F8BB09A4617
:101DA0000F460546002606E025280BD052460D9921
:101DB00090476D1C761C28780028F5D10FB030466E
:101DC000BDE8F08F0024A0460122604900E00443F2
:101DD00015F8013F203B02FA03F00842F7D12878BA
:101DE0002E2817D115F8010F44F004042A280ED02C
:101DF0006FF02F022878A0F1300109290AD808EBEA
:101E0000880102EB410100EB01086D1CF2E757F875
:101E1000048B6D1C287869283ED006DC0028CDD0C4
:101E200063280BD0642804D136E0732810D07528BD
:101E30004BD052460D999047761C85E017F8040B5D
:101E40008DF8000000208DF80100E946012003E034
:101E500057F8049B4FF0FF3061074FF0000401D4A6
:101E60000AE0641C44450DDA8442FADB19F80410D8
:101E70000029F6D106E0641C8442FCDB19F804104A
:101E80000029F8D1264404E019F8010B52460D99B7
:101E90009047641EF8D257E001CF4FF00A0B00289C
:101EA00002DA40422D2102E0210504D52B218DF8D4
:101EB0002410012103E0E10705D02021F7E70DF10F
:101EC000200908910CE00021F9E701CF4FF00A0B3F
:101ED000F9E75946FEF7ECF901F1300209F8012D56
:101EE0000028F6D1ADEB090000F1200B600701D40A
:101EF0004FF00108D84502DDA8EB0B0000E0002000
:101F00008046002406E009A85246005D0D999047DE
:101F1000641C761C08988442F5DB04E030205246AD
:101F20000D999047761CB8F10001A8F10108F5DC85
:101F300005E019F8010B52460D999047761CBBF14C
:101F40000001ABF1010BF4DC6D1C34E70928010042
:101F5000F0B54FF461764FF0E0220E4F17E03346B4
:101F6000984200D803469469594201EBC10114EB31
:101F7000C10505D49169A14208DAA942FADA05E05F
:101F80003D449169A142FCDDA942FADCC01A002857
:101F9000E5D1F0BD40190100F0B54FF461764FF086
:101FA000E0220E4F17E03346984200D8034694696A
:101FB000594201EBC10114EBC10505D49169A1425D
:101FC00008DAA942FADA05E03D449169A142FCDD54
:101FD000A942FADCC01A0028E5D1F0BD4019010081
:101FE00070B50024FEF75AFA124D04E0641CE4B206
:101FF0000120FFF7ADFF08212846FEF7E3FE10B1F0
:10200000642CF3D30FE0642C0DD2002404E0641C94
:10201000E4B20120FFF79CFF08212846FEF7D2FE1C
:1020200018B1642C04D3012070BD642CEFD3FAE7FF
:10203000002070BD000801402DE9FC5F00248946A6
:102040008246A0462546264600F0A2F8FFF7C8FFC4
:1020500010B10120BDE8FC9F0027EB4600F062F8BC
:102060000BF807007F1CFFB2052FF7D39DF8001077
:102070009DF801009DF803300A189DF80200034402
:102080001A449DF804309A4201D10C4680462448F7
:1020900001780A2910D200EB410181F80280017811
:1020A00000EB4101CC700178491CC9B201700A29CA
:1020B00007D30A2141701AE080F80280C470012120
:1020C0000170417811B10A2911D027E0002102786E
:1020D0000AE000BF00EB4103491C9C78DB782C44EC
:1020E0003344A5B29EB2C9B28A42F3D80EE090F84A
:1020F0000120002100EB4103491C9C78DB782C4433
:102100003344C9B2A5B29EB28A42F3D8B5FBF2F00D
:10211000B6FBF2F18AF8000089F80010002099E778
:10212000C40000202DE9F0410020184E054640066D
:10213000070E002404E0641CE4B20120FFF708FF4E
:1021400008213046FEF73EFE08B1642CF3D300248C
:1021500004E0641CE4B20120FFF7FAFE08213046D7
:10216000FEF730FE08B9642CF3D31E20FFF7F0FE13
:1021700008213046FEF726FE00B101206D1C3843D1
:10218000EDB2082DD3D3BDE8F08100000008014076
:1021900010B5FEF793F9094C002208212046FEF7FE
:1021A00016FE1420FEF70CFD012208212046FEF742
:1021B0000EFEBDE810401E20FFF7CABE0008014019
:1021C00013B54FF6FF73012269460248FFF760FB23
:1021D00000981CBD84000020FEF70CFEFFF77DFC7C
:1021E000FFF702FCFFF756FCFFF7AEFBFFF7D4FB4F
:1021F000FEF7D2F91A48FEF779FA012219491A486E
:10220000FFF71CFB194C0A2540F68F260A20FEF723
:10221000D7FCFEF793F990FBF5F105FB110290FB5B
:10222000F5F1A08012A0FFF787FD0D48FEF71CFC1A
:102230000B48FEF73DFB80B2608040F6E441484326
:10224000B0FBF6F112A0FFF777FD0849491C481EC4
:10225000FFF7F2FE6278217811A0FFF76DFDD5E758
:10226000240000201C00002084000020000000202A
:1022700054656D70657261747572655F696E7369BE
:1022800064653A25642E2564A1E3432C0000000018
:10229000566F6C746167653A25646D562C000000BA
:1022A00054656D70657261747572655F6F75747376
:1022B0006964653A2564A1E3432C48756D696469D6
:1022C00074793A2564524825250D0A000000000063
:1022D00000000000010203040607080900000000D6
:1022E0000102030404230008000000202400000071
:1022F000781D00082823000824000020BC040000EA
:10230000881D00080000000000000000010000001F
:102310000100000010000000000000000024F40094
:082320000000000000000000B5
:04000005080000ED02
:00000001FF
